{
  "contractName": "Marketplace",
  "abi": [
    {
      "inputs": [
        {
          "internalType": "address",
          "name": "digiMartTokenAddress",
          "type": "address"
        }
      ],
      "stateMutability": "nonpayable",
      "type": "constructor"
    },
    {
      "anonymous": false,
      "inputs": [
        {
          "indexed": false,
          "internalType": "uint256",
          "name": "dmt_cost",
          "type": "uint256"
        }
      ],
      "name": "Dmt",
      "type": "event"
    },
    {
      "anonymous": false,
      "inputs": [],
      "name": "Holded",
      "type": "event"
    },
    {
      "anonymous": false,
      "inputs": [
        {
          "indexed": true,
          "internalType": "address",
          "name": "previousOwner",
          "type": "address"
        },
        {
          "indexed": true,
          "internalType": "address",
          "name": "newOwner",
          "type": "address"
        }
      ],
      "name": "OwnershipTransferred",
      "type": "event"
    },
    {
      "anonymous": false,
      "inputs": [
        {
          "indexed": false,
          "internalType": "uint256",
          "name": "paymentusd",
          "type": "uint256"
        }
      ],
      "name": "PaymentRequiredUSD",
      "type": "event"
    },
    {
      "anonymous": false,
      "inputs": [
        {
          "indexed": true,
          "internalType": "address",
          "name": "owner",
          "type": "address"
        },
        {
          "indexed": true,
          "internalType": "bytes32",
          "name": "id",
          "type": "bytes32"
        },
        {
          "indexed": false,
          "internalType": "string",
          "name": "name",
          "type": "string"
        },
        {
          "indexed": false,
          "internalType": "address",
          "name": "beneficiary",
          "type": "address"
        },
        {
          "indexed": false,
          "internalType": "uint256",
          "name": "pricePerSecond",
          "type": "uint256"
        },
        {
          "indexed": false,
          "internalType": "enum IMarketplace1.Currency",
          "name": "currency",
          "type": "uint8"
        }
      ],
      "name": "ProductCreated",
      "type": "event"
    },
    {
      "anonymous": false,
      "inputs": [
        {
          "indexed": true,
          "internalType": "address",
          "name": "owner",
          "type": "address"
        },
        {
          "indexed": true,
          "internalType": "bytes32",
          "name": "id",
          "type": "bytes32"
        },
        {
          "indexed": false,
          "internalType": "string",
          "name": "name",
          "type": "string"
        },
        {
          "indexed": false,
          "internalType": "address",
          "name": "beneficiary",
          "type": "address"
        },
        {
          "indexed": false,
          "internalType": "uint256",
          "name": "pricePerSecond",
          "type": "uint256"
        },
        {
          "indexed": false,
          "internalType": "enum IMarketplace1.Currency",
          "name": "currency",
          "type": "uint8"
        }
      ],
      "name": "ProductDeleted",
      "type": "event"
    },
    {
      "anonymous": false,
      "inputs": [
        {
          "indexed": true,
          "internalType": "address",
          "name": "owner",
          "type": "address"
        },
        {
          "indexed": true,
          "internalType": "bytes32",
          "name": "id",
          "type": "bytes32"
        },
        {
          "indexed": false,
          "internalType": "string",
          "name": "name",
          "type": "string"
        },
        {
          "indexed": false,
          "internalType": "address",
          "name": "beneficiary",
          "type": "address"
        },
        {
          "indexed": false,
          "internalType": "uint256",
          "name": "pricePerSecond",
          "type": "uint256"
        },
        {
          "indexed": false,
          "internalType": "enum IMarketplace1.Currency",
          "name": "currency",
          "type": "uint8"
        }
      ],
      "name": "ProductImported",
      "type": "event"
    },
    {
      "anonymous": false,
      "inputs": [
        {
          "indexed": true,
          "internalType": "address",
          "name": "newOwner",
          "type": "address"
        },
        {
          "indexed": true,
          "internalType": "bytes32",
          "name": "id",
          "type": "bytes32"
        },
        {
          "indexed": true,
          "internalType": "address",
          "name": "oldOwner",
          "type": "address"
        }
      ],
      "name": "ProductOwnershipChanged",
      "type": "event"
    },
    {
      "anonymous": false,
      "inputs": [
        {
          "indexed": true,
          "internalType": "address",
          "name": "owner",
          "type": "address"
        },
        {
          "indexed": true,
          "internalType": "bytes32",
          "name": "id",
          "type": "bytes32"
        },
        {
          "indexed": true,
          "internalType": "address",
          "name": "to",
          "type": "address"
        }
      ],
      "name": "ProductOwnershipOffered",
      "type": "event"
    },
    {
      "anonymous": false,
      "inputs": [
        {
          "indexed": true,
          "internalType": "address",
          "name": "owner",
          "type": "address"
        },
        {
          "indexed": true,
          "internalType": "bytes32",
          "name": "id",
          "type": "bytes32"
        },
        {
          "indexed": false,
          "internalType": "string",
          "name": "name",
          "type": "string"
        },
        {
          "indexed": false,
          "internalType": "address",
          "name": "beneficiary",
          "type": "address"
        },
        {
          "indexed": false,
          "internalType": "uint256",
          "name": "pricePerSecond",
          "type": "uint256"
        },
        {
          "indexed": false,
          "internalType": "enum IMarketplace1.Currency",
          "name": "currency",
          "type": "uint8"
        }
      ],
      "name": "ProductRedeployed",
      "type": "event"
    },
    {
      "anonymous": false,
      "inputs": [
        {
          "indexed": true,
          "internalType": "address",
          "name": "owner",
          "type": "address"
        },
        {
          "indexed": true,
          "internalType": "bytes32",
          "name": "id",
          "type": "bytes32"
        },
        {
          "indexed": false,
          "internalType": "string",
          "name": "name",
          "type": "string"
        },
        {
          "indexed": false,
          "internalType": "address",
          "name": "beneficiary",
          "type": "address"
        },
        {
          "indexed": false,
          "internalType": "uint256",
          "name": "pricePerSecond",
          "type": "uint256"
        },
        {
          "indexed": false,
          "internalType": "enum IMarketplace1.Currency",
          "name": "currency",
          "type": "uint8"
        }
      ],
      "name": "ProductUpdated",
      "type": "event"
    },
    {
      "anonymous": false,
      "inputs": [
        {
          "indexed": false,
          "internalType": "address",
          "name": "customer",
          "type": "address"
        },
        {
          "indexed": false,
          "internalType": "uint256",
          "name": "amount",
          "type": "uint256"
        }
      ],
      "name": "PurchaseSuccessful",
      "type": "event"
    },
    {
      "anonymous": false,
      "inputs": [],
      "name": "Resumed",
      "type": "event"
    },
    {
      "anonymous": false,
      "inputs": [
        {
          "indexed": false,
          "internalType": "uint256",
          "name": "usd_wei",
          "type": "uint256"
        }
      ],
      "name": "UsdToDmt",
      "type": "event"
    },
    {
      "anonymous": false,
      "inputs": [
        {
          "indexed": false,
          "internalType": "uint256",
          "name": "amount",
          "type": "uint256"
        }
      ],
      "name": "Withdraw",
      "type": "event"
    },
    {
      "inputs": [],
      "name": "_beneficiary",
      "outputs": [
        {
          "internalType": "address payable",
          "name": "",
          "type": "address"
        }
      ],
      "stateMutability": "view",
      "type": "function"
    },
    {
      "inputs": [],
      "name": "claimOwnership",
      "outputs": [],
      "stateMutability": "nonpayable",
      "type": "function"
    },
    {
      "inputs": [],
      "name": "currencyUpdateAgent",
      "outputs": [
        {
          "internalType": "address",
          "name": "",
          "type": "address"
        }
      ],
      "stateMutability": "view",
      "type": "function"
    },
    {
      "inputs": [],
      "name": "digimart",
      "outputs": [
        {
          "internalType": "contract IERC20",
          "name": "",
          "type": "address"
        }
      ],
      "stateMutability": "view",
      "type": "function"
    },
    {
      "inputs": [],
      "name": "hold",
      "outputs": [
        {
          "internalType": "bool",
          "name": "",
          "type": "bool"
        }
      ],
      "stateMutability": "view",
      "type": "function"
    },
    {
      "inputs": [],
      "name": "owner",
      "outputs": [
        {
          "internalType": "address",
          "name": "",
          "type": "address"
        }
      ],
      "stateMutability": "view",
      "type": "function"
    },
    {
      "inputs": [],
      "name": "pendingOwner",
      "outputs": [
        {
          "internalType": "address",
          "name": "",
          "type": "address"
        }
      ],
      "stateMutability": "view",
      "type": "function"
    },
    {
      "inputs": [
        {
          "internalType": "bytes32",
          "name": "",
          "type": "bytes32"
        }
      ],
      "name": "products",
      "outputs": [
        {
          "internalType": "bytes32",
          "name": "id",
          "type": "bytes32"
        },
        {
          "internalType": "string",
          "name": "name",
          "type": "string"
        },
        {
          "internalType": "address",
          "name": "owner",
          "type": "address"
        },
        {
          "internalType": "address",
          "name": "beneficiary",
          "type": "address"
        },
        {
          "internalType": "uint256",
          "name": "pricePerSecond",
          "type": "uint256"
        },
        {
          "internalType": "enum IMarketplace1.Currency",
          "name": "priceCurrency",
          "type": "uint8"
        },
        {
          "internalType": "enum IMarketplace1.ProductState",
          "name": "state",
          "type": "uint8"
        },
        {
          "internalType": "address",
          "name": "newOwnerCandidate",
          "type": "address"
        }
      ],
      "stateMutability": "view",
      "type": "function"
    },
    {
      "inputs": [
        {
          "internalType": "address",
          "name": "newOwner",
          "type": "address"
        }
      ],
      "name": "transferOwnership",
      "outputs": [],
      "stateMutability": "nonpayable",
      "type": "function"
    },
    {
      "inputs": [
        {
          "internalType": "address",
          "name": "digiMartTokenAddress",
          "type": "address"
        }
      ],
      "name": "reInitialize",
      "outputs": [],
      "stateMutability": "nonpayable",
      "type": "function"
    },
    {
      "inputs": [
        {
          "internalType": "bytes32",
          "name": "id",
          "type": "bytes32"
        }
      ],
      "name": "getProduct",
      "outputs": [
        {
          "internalType": "string",
          "name": "name",
          "type": "string"
        },
        {
          "internalType": "address",
          "name": "owner",
          "type": "address"
        },
        {
          "internalType": "address",
          "name": "beneficiary",
          "type": "address"
        },
        {
          "internalType": "uint256",
          "name": "pricePerSecond",
          "type": "uint256"
        },
        {
          "internalType": "enum IMarketplace1.Currency",
          "name": "currency",
          "type": "uint8"
        },
        {
          "internalType": "enum IMarketplace1.ProductState",
          "name": "state",
          "type": "uint8"
        }
      ],
      "stateMutability": "view",
      "type": "function"
    },
    {
      "inputs": [
        {
          "internalType": "bytes32",
          "name": "id",
          "type": "bytes32"
        },
        {
          "internalType": "string",
          "name": "name",
          "type": "string"
        },
        {
          "internalType": "address",
          "name": "beneficiary",
          "type": "address"
        },
        {
          "internalType": "uint256",
          "name": "pricePerSecond",
          "type": "uint256"
        },
        {
          "internalType": "enum IMarketplace1.Currency",
          "name": "currency",
          "type": "uint8"
        }
      ],
      "name": "createProductProfile",
      "outputs": [],
      "stateMutability": "nonpayable",
      "type": "function"
    },
    {
      "inputs": [
        {
          "internalType": "bytes32",
          "name": "productId",
          "type": "bytes32"
        }
      ],
      "name": "removeProduct",
      "outputs": [],
      "stateMutability": "nonpayable",
      "type": "function"
    },
    {
      "inputs": [
        {
          "internalType": "bytes32",
          "name": "productId",
          "type": "bytes32"
        }
      ],
      "name": "redeployProduct",
      "outputs": [],
      "stateMutability": "nonpayable",
      "type": "function"
    },
    {
      "inputs": [
        {
          "internalType": "bytes32",
          "name": "productId",
          "type": "bytes32"
        },
        {
          "internalType": "string",
          "name": "name",
          "type": "string"
        },
        {
          "internalType": "address",
          "name": "beneficiary",
          "type": "address"
        },
        {
          "internalType": "uint256",
          "name": "pricePerSecond",
          "type": "uint256"
        },
        {
          "internalType": "enum IMarketplace1.Currency",
          "name": "currency",
          "type": "uint8"
        },
        {
          "internalType": "bool",
          "name": "redeploy",
          "type": "bool"
        }
      ],
      "name": "updateProduct",
      "outputs": [],
      "stateMutability": "nonpayable",
      "type": "function"
    },
    {
      "inputs": [
        {
          "internalType": "uint256",
          "name": "tokenId",
          "type": "uint256"
        }
      ],
      "name": "currentProductPrice",
      "outputs": [
        {
          "internalType": "uint32",
          "name": "",
          "type": "uint32"
        },
        {
          "internalType": "uint32",
          "name": "",
          "type": "uint32"
        },
        {
          "internalType": "uint32",
          "name": "",
          "type": "uint32"
        },
        {
          "internalType": "uint32",
          "name": "",
          "type": "uint32"
        }
      ],
      "stateMutability": "view",
      "type": "function"
    },
    {
      "inputs": [
        {
          "internalType": "uint256",
          "name": "tokenId",
          "type": "uint256"
        },
        {
          "internalType": "uint256",
          "name": "targetDate",
          "type": "uint256"
        }
      ],
      "name": "productPriceData",
      "outputs": [
        {
          "internalType": "uint32",
          "name": "",
          "type": "uint32"
        },
        {
          "internalType": "uint32",
          "name": "",
          "type": "uint32"
        },
        {
          "internalType": "uint32",
          "name": "",
          "type": "uint32"
        },
        {
          "internalType": "uint32",
          "name": "",
          "type": "uint32"
        }
      ],
      "stateMutability": "view",
      "type": "function"
    },
    {
      "inputs": [
        {
          "internalType": "bytes32",
          "name": "productId",
          "type": "bytes32"
        },
        {
          "internalType": "address",
          "name": "newOwnerCandidate",
          "type": "address"
        }
      ],
      "name": "offerProductOwnership",
      "outputs": [],
      "stateMutability": "nonpayable",
      "type": "function"
    },
    {
      "inputs": [
        {
          "internalType": "bytes32",
          "name": "productId",
          "type": "bytes32"
        }
      ],
      "name": "claimProductOwnership",
      "outputs": [],
      "stateMutability": "nonpayable",
      "type": "function"
    },
    {
      "inputs": [],
      "name": "hodle",
      "outputs": [],
      "stateMutability": "nonpayable",
      "type": "function"
    },
    {
      "inputs": [],
      "name": "resume",
      "outputs": [],
      "stateMutability": "nonpayable",
      "type": "function"
    },
    {
      "inputs": [
        {
          "internalType": "uint256",
          "name": "amount",
          "type": "uint256"
        },
        {
          "internalType": "uint16",
          "name": "quantity",
          "type": "uint16"
        }
      ],
      "name": "purchase",
      "outputs": [],
      "stateMutability": "payable",
      "type": "function"
    },
    {
      "inputs": [],
      "name": "withdraw",
      "outputs": [],
      "stateMutability": "nonpayable",
      "type": "function"
    }
  ],
  "bytecode": "0x60806040526000600160146101000a81548160ff0219169083151502179055503480156200002c57600080fd5b5060405162003d1338038062003d13833981810160405260208110156200005257600080fd5b8101908080519060200190929190505050336000806101000a81548173ffffffffffffffffffffffffffffffffffffffff021916908373ffffffffffffffffffffffffffffffffffffffff160217905550620000b481620000bb60201b60201c565b50620000ff565b80600260006101000a81548173ffffffffffffffffffffffffffffffffffffffff021916908373ffffffffffffffffffffffffffffffffffffffff16021790555050565b613c04806200010f6000396000f3fe60806040526004361061013f5760003560e01c80636067a14e116100b6578063a26ea4961161006f578063a26ea496146108cc578063b217cdab14610907578063c5a1077514610943578063e120022a1461095a578063e30c3978146109e0578063f2fde38b14610a215761013f565b80636067a14e1461055c5780637905439114610671578063828cedb7146107ae57806389aaad29146107ef5780638da5cb5b1461083057806396002aef146108715761013f565b806340542e771161010857806340542e77146102f357806344f95b9c146103fc5780634e71e0c81461044d578063510899381461046457806358f816bf146104a55780635e2c1af8146104e05761013f565b8062e0c53f14610144578063046f7da2146101715780631a464fa1146101885780633a20e9df146101c35780633ccfd60b146102dc575b600080fd5b34801561015057600080fd5b50610159610a72565b60405180821515815260200191505060405180910390f35b34801561017d57600080fd5b50610186610a85565b005b34801561019457600080fd5b506101c1600480360360208110156101ab57600080fd5b8101908080359060200190929190505050610b8f565b005b3480156101cf57600080fd5b506101fc600480360360208110156101e657600080fd5b8101908080359060200190929190505050610e57565b60405180806020018773ffffffffffffffffffffffffffffffffffffffff1681526020018673ffffffffffffffffffffffffffffffffffffffff16815260200185815260200184600181111561024e57fe5b815260200183600181111561025f57fe5b8152602001828103825288818151815260200191508051906020019080838360005b8381101561029c578082015181840152602081019050610281565b50505050905090810190601f1680156102c95780820380516001836020036101000a031916815260200191505b5097505050505050505060405180910390f35b3480156102e857600080fd5b506102f16110b7565b005b3480156102ff57600080fd5b506103fa600480360360a081101561031657600080fd5b81019080803590602001909291908035906020019064010000000081111561033d57600080fd5b82018360208201111561034f57600080fd5b8035906020019184600183028401116401000000008311171561037157600080fd5b91908080601f016020809104026020016040519081016040528093929190818152602001838380828437600081840152601f19601f820116905080830192505050505050509192919290803573ffffffffffffffffffffffffffffffffffffffff16906020019092919080359060200190929190803560ff169060200190929190505050611220565b005b34801561040857600080fd5b5061044b6004803603602081101561041f57600080fd5b81019080803573ffffffffffffffffffffffffffffffffffffffff16906020019092919050505061130d565b005b34801561045957600080fd5b506104626113da565b005b34801561047057600080fd5b506104796115df565b604051808273ffffffffffffffffffffffffffffffffffffffff16815260200191505060405180910390f35b3480156104b157600080fd5b506104de600480360360208110156104c857600080fd5b8101908080359060200190929190505050611605565b005b3480156104ec57600080fd5b506105196004803603602081101561050357600080fd5b8101908080359060200190929190505050611a06565b604051808563ffffffff1681526020018463ffffffff1681526020018363ffffffff1681526020018263ffffffff16815260200194505050505060405180910390f35b34801561056857600080fd5b5061066f600480360360c081101561057f57600080fd5b8101908080359060200190929190803590602001906401000000008111156105a657600080fd5b8201836020820111156105b857600080fd5b803590602001918460018302840111640100000000831117156105da57600080fd5b91908080601f016020809104026020016040519081016040528093929190818152602001838380828437600081840152601f19601f820116905080830192505050505050509192919290803573ffffffffffffffffffffffffffffffffffffffff16906020019092919080359060200190929190803560ff169060200190929190803515159060200190929190505050611a25565b005b34801561067d57600080fd5b506106aa6004803603602081101561069457600080fd5b8101908080359060200190929190505050611e23565b60405180898152602001806020018873ffffffffffffffffffffffffffffffffffffffff1681526020018773ffffffffffffffffffffffffffffffffffffffff16815260200186815260200185600181111561070257fe5b815260200184600181111561071357fe5b81526020018373ffffffffffffffffffffffffffffffffffffffff168152602001828103825289818151815260200191508051906020019080838360005b8381101561076c578082015181840152602081019050610751565b50505050905090810190601f1680156107995780820380516001836020036101000a031916815260200191505b50995050505050505050505060405180910390f35b3480156107ba57600080fd5b506107c3611f7d565b604051808273ffffffffffffffffffffffffffffffffffffffff16815260200191505060405180910390f35b3480156107fb57600080fd5b50610804611fa3565b604051808273ffffffffffffffffffffffffffffffffffffffff16815260200191505060405180910390f35b34801561083c57600080fd5b50610845611fc9565b604051808273ffffffffffffffffffffffffffffffffffffffff16815260200191505060405180910390f35b34801561087d57600080fd5b506108ca6004803603604081101561089457600080fd5b8101908080359060200190929190803573ffffffffffffffffffffffffffffffffffffffff169060200190929190505050611fed565b005b3480156108d857600080fd5b50610905600480360360208110156108ef57600080fd5b8101908080359060200190929190505050612290565b005b6109416004803603604081101561091d57600080fd5b8101908080359060200190929190803561ffff169060200190929190505050612690565b005b34801561094f57600080fd5b50610958612a0e565b005b34801561096657600080fd5b5061099d6004803603604081101561097d57600080fd5b810190808035906020019092919080359060200190929190505050612b17565b604051808563ffffffff1681526020018463ffffffff1681526020018363ffffffff1681526020018263ffffffff16815260200194505050505060405180910390f35b3480156109ec57600080fd5b506109f5612c4a565b604051808273ffffffffffffffffffffffffffffffffffffffff16815260200191505060405180910390f35b348015610a2d57600080fd5b50610a7060048036036020811015610a4457600080fd5b81019080803573ffffffffffffffffffffffffffffffffffffffff169060200190929190505050612c70565b005b600160149054906101000a900460ff1681565b60008054906101000a900473ffffffffffffffffffffffffffffffffffffffff1673ffffffffffffffffffffffffffffffffffffffff163373ffffffffffffffffffffffffffffffffffffffff1614610b46576040517f08c379a00000000000000000000000000000000000000000000000000000000081526004018080602001828103825260098152602001807f6f6e6c794f776e6572000000000000000000000000000000000000000000000081525060200191505060405180910390fd5b6000600160146101000a81548160ff0219169083151502179055507f62451d457bc659158be6e6247f56ec1df424a5c7597f71c20c2bc44e0965c8f960405160405180910390a1565b600160149054906101000a900460ff161580610bf657503373ffffffffffffffffffffffffffffffffffffffff1660008054906101000a900473ffffffffffffffffffffffffffffffffffffffff1673ffffffffffffffffffffffffffffffffffffffff16145b610c68576040517f08c379a000000000000000000000000000000000000000000000000000000000815260040180806020018281038252600a8152602001807f6572726f725f686f6c640000000000000000000000000000000000000000000081525060200191505060405180910390fd5b610c7181612d75565b5060006007600083815260200190815260200160002090508060050160029054906101000a900473ffffffffffffffffffffffffffffffffffffffff1673ffffffffffffffffffffffffffffffffffffffff163373ffffffffffffffffffffffffffffffffffffffff1614610d4e576040517f08c379a00000000000000000000000000000000000000000000000000000000081526004018080602001828103825260128152602001807f6572726f725f6e6f745065726d6974746564000000000000000000000000000081525060200191505060405180910390fd5b8060020160009054906101000a900473ffffffffffffffffffffffffffffffffffffffff1673ffffffffffffffffffffffffffffffffffffffff16823373ffffffffffffffffffffffffffffffffffffffff167eaf27297c740fbece798135b71b06164310e0591b6c729e50b8026dcc60be5060405160405180910390a4338160020160006101000a81548173ffffffffffffffffffffffffffffffffffffffff021916908373ffffffffffffffffffffffffffffffffffffffff16021790555060008160050160026101000a81548173ffffffffffffffffffffffffffffffffffffffff021916908373ffffffffffffffffffffffffffffffffffffffff1602179055505050565b606060008060008060008073ffffffffffffffffffffffffffffffffffffffff168573ffffffffffffffffffffffffffffffffffffffff16141580610eea5750600073ffffffffffffffffffffffffffffffffffffffff16600360009054906101000a900473ffffffffffffffffffffffffffffffffffffffff1673ffffffffffffffffffffffffffffffffffffffff16145b15610ef4576110ae565b600360009054906101000a900473ffffffffffffffffffffffffffffffffffffffff1673ffffffffffffffffffffffffffffffffffffffff16633a20e9df886040518263ffffffff1660e01b81526004018082815260200191505060006040518083038186803b158015610f6757600080fd5b505afa158015610f7b573d6000803e3d6000fd5b505050506040513d6000823e3d601f19601f8201168201806040525060c0811015610fa557600080fd5b8101908080516040519392919084640100000000821115610fc557600080fd5b83820191506020820185811115610fdb57600080fd5b8251866001820283011164010000000082111715610ff857600080fd5b8083526020830192505050908051906020019080838360005b8381101561102c578082015181840152602081019050611011565b50505050905090810190601f1680156110595780820380516001836020036101000a031916815260200191505b506040526020018051906020019092919080519060200190929190805190602001909291908051906020019092919080519060200190929190505050809650819750829850839950849a50859b505050505050505b91939550919395565b60008054906101000a900473ffffffffffffffffffffffffffffffffffffffff1673ffffffffffffffffffffffffffffffffffffffff163373ffffffffffffffffffffffffffffffffffffffff1614611178576040517f08c379a00000000000000000000000000000000000000000000000000000000081526004018080602001828103825260098152602001807f6f6e6c794f776e6572000000000000000000000000000000000000000000000081525060200191505060405180910390fd5b6000479050600660009054906101000a900473ffffffffffffffffffffffffffffffffffffffff1673ffffffffffffffffffffffffffffffffffffffff166108fc829081150290604051600060405180830381858888f193505050501580156111e5573d6000803e3d6000fd5b507f5b6b431d4476a211bb7d41c20d1aab9ae2321deee0d20be3d9fc9b1093fa6e3d816040518082815260200191505060405180910390a150565b600160149054906101000a900460ff16158061128757503373ffffffffffffffffffffffffffffffffffffffff1660008054906101000a900473ffffffffffffffffffffffffffffffffffffffff1673ffffffffffffffffffffffffffffffffffffffff16145b6112f9576040517f08c379a000000000000000000000000000000000000000000000000000000000815260040180806020018281038252600a8152602001807f6572726f725f686f6c640000000000000000000000000000000000000000000081525060200191505060405180910390fd5b611306858585858561327a565b5050505050565b60008054906101000a900473ffffffffffffffffffffffffffffffffffffffff1673ffffffffffffffffffffffffffffffffffffffff163373ffffffffffffffffffffffffffffffffffffffff16146113ce576040517f08c379a00000000000000000000000000000000000000000000000000000000081526004018080602001828103825260098152602001807f6f6e6c794f776e6572000000000000000000000000000000000000000000000081525060200191505060405180910390fd5b6113d781613713565b50565b600160009054906101000a900473ffffffffffffffffffffffffffffffffffffffff1673ffffffffffffffffffffffffffffffffffffffff163373ffffffffffffffffffffffffffffffffffffffff161461149d576040517f08c379a00000000000000000000000000000000000000000000000000000000081526004018080602001828103825260108152602001807f6f6e6c7950656e64696e674f776e65720000000000000000000000000000000081525060200191505060405180910390fd5b600160009054906101000a900473ffffffffffffffffffffffffffffffffffffffff1673ffffffffffffffffffffffffffffffffffffffff1660008054906101000a900473ffffffffffffffffffffffffffffffffffffffff1673ffffffffffffffffffffffffffffffffffffffff167f8be0079c531659141344cd1fd0a4f28419497f9722a3daafe3b4186f6b6457e060405160405180910390a3600160009054906101000a900473ffffffffffffffffffffffffffffffffffffffff166000806101000a81548173ffffffffffffffffffffffffffffffffffffffff021916908373ffffffffffffffffffffffffffffffffffffffff1602179055506000600160006101000a81548173ffffffffffffffffffffffffffffffffffffffff021916908373ffffffffffffffffffffffffffffffffffffffff160217905550565b600260009054906101000a900473ffffffffffffffffffffffffffffffffffffffff1681565b80600061161182610e57565b50505050915050600073ffffffffffffffffffffffffffffffffffffffff168173ffffffffffffffffffffffffffffffffffffffff1614156116bb576040517f08c379a000000000000000000000000000000000000000000000000000000000815260040180806020018281038252600e8152602001807f6572726f725f6e6f74466f756e6400000000000000000000000000000000000081525060200191505060405180910390fd5b3373ffffffffffffffffffffffffffffffffffffffff168173ffffffffffffffffffffffffffffffffffffffff16148061174057503373ffffffffffffffffffffffffffffffffffffffff1660008054906101000a900473ffffffffffffffffffffffffffffffffffffffff1673ffffffffffffffffffffffffffffffffffffffff16145b6117b2576040517f08c379a00000000000000000000000000000000000000000000000000000000081526004018080602001828103825260178152602001807f6572726f725f70726f647563744f776e6572734f6e6c7900000000000000000081525060200191505060405180910390fd5b6117bb83612d75565b506000600760008581526020019081526020016000209050600060018111156117e057fe5b8160050160019054906101000a900460ff1660018111156117fd57fe5b14611870576040517f08c379a00000000000000000000000000000000000000000000000000000000081526004018080602001828103825260178152602001807f6572726f725f6d75737442654e6f744465706c6f79656400000000000000000081525060200191505060405180910390fd5b60018160050160016101000a81548160ff0219169083600181111561189157fe5b0217905550838160020160009054906101000a900473ffffffffffffffffffffffffffffffffffffffff1673ffffffffffffffffffffffffffffffffffffffff167fbf794886308d5b0d938fa6b00bc37121c451c351557b374fad9f3709d34c3cc4836001018460030160009054906101000a900473ffffffffffffffffffffffffffffffffffffffff1685600401548660050160009054906101000a900460ff1660405180806020018573ffffffffffffffffffffffffffffffffffffffff16815260200184815260200183600181111561196957fe5b81526020018281038252868181546001816001161561010002031660029004815260200191508054600181600116156101000203166002900480156119ef5780601f106119c4576101008083540402835291602001916119ef565b820191906000526020600020905b8154815290600101906020018083116119d257829003601f168201915b50509550505050505060405180910390a350505050565b600080600080611a168542612b17565b93509350935093509193509193565b856000611a3182610e57565b50505050915050600073ffffffffffffffffffffffffffffffffffffffff168173ffffffffffffffffffffffffffffffffffffffff161415611adb576040517f08c379a000000000000000000000000000000000000000000000000000000000815260040180806020018281038252600e8152602001807f6572726f725f6e6f74466f756e6400000000000000000000000000000000000081525060200191505060405180910390fd5b3373ffffffffffffffffffffffffffffffffffffffff168173ffffffffffffffffffffffffffffffffffffffff161480611b6057503373ffffffffffffffffffffffffffffffffffffffff1660008054906101000a900473ffffffffffffffffffffffffffffffffffffffff1673ffffffffffffffffffffffffffffffffffffffff16145b611bd2576040517f08c379a00000000000000000000000000000000000000000000000000000000081526004018080602001828103825260178152602001807f6572726f725f70726f647563744f776e6572734f6e6c7900000000000000000081525060200191505060405180910390fd5b60008511611c48576040517f08c379a000000000000000000000000000000000000000000000000000000000815260040180806020018281038252601e8152602001807f6572726f725f6672656550726f64756374734e6f74537570706f72746564000081525060200191505060405180910390fd5b611c5188612d75565b506000600760008a8152602001908152602001600020905087816001019080519060200190611c81929190613ab0565b50868160030160006101000a81548173ffffffffffffffffffffffffffffffffffffffff021916908373ffffffffffffffffffffffffffffffffffffffff160217905550858160040181905550848160050160006101000a81548160ff02191690836001811115611cee57fe5b021790555080600001548160020160009054906101000a900473ffffffffffffffffffffffffffffffffffffffff1673ffffffffffffffffffffffffffffffffffffffff167f62f0f28d4499e27d1fc1b838abd162e296626cda4b0d94cd35fbe20113bae4208a8a8a8a60405180806020018573ffffffffffffffffffffffffffffffffffffffff168152602001848152602001836001811115611d8e57fe5b8152602001828103825286818151815260200191508051906020019080838360005b83811015611dcb578082015181840152602081019050611db0565b50505050905090810190601f168015611df85780820380516001836020036101000a031916815260200191505b509550505050505060405180910390a38315611e1857611e1789611605565b5b505050505050505050565b6007602052806000526040600020600091509050806000015490806001018054600181600116156101000203166002900480601f016020809104026020016040519081016040528092919081815260200182805460018160011615610100020316600290048015611ed55780601f10611eaa57610100808354040283529160200191611ed5565b820191906000526020600020905b815481529060010190602001808311611eb857829003601f168201915b5050505050908060020160009054906101000a900473ffffffffffffffffffffffffffffffffffffffff16908060030160009054906101000a900473ffffffffffffffffffffffffffffffffffffffff16908060040154908060050160009054906101000a900460ff16908060050160019054906101000a900460ff16908060050160029054906101000a900473ffffffffffffffffffffffffffffffffffffffff16905088565b600660009054906101000a900473ffffffffffffffffffffffffffffffffffffffff1681565b600560009054906101000a900473ffffffffffffffffffffffffffffffffffffffff1681565b60008054906101000a900473ffffffffffffffffffffffffffffffffffffffff1681565b816000611ff982610e57565b50505050915050600073ffffffffffffffffffffffffffffffffffffffff168173ffffffffffffffffffffffffffffffffffffffff1614156120a3576040517f08c379a000000000000000000000000000000000000000000000000000000000815260040180806020018281038252600e8152602001807f6572726f725f6e6f74466f756e6400000000000000000000000000000000000081525060200191505060405180910390fd5b3373ffffffffffffffffffffffffffffffffffffffff168173ffffffffffffffffffffffffffffffffffffffff16148061212857503373ffffffffffffffffffffffffffffffffffffffff1660008054906101000a900473ffffffffffffffffffffffffffffffffffffffff1673ffffffffffffffffffffffffffffffffffffffff16145b61219a576040517f08c379a00000000000000000000000000000000000000000000000000000000081526004018080602001828103825260178152602001807f6572726f725f70726f647563744f776e6572734f6e6c7900000000000000000081525060200191505060405180910390fd5b6121a384612d75565b50826007600086815260200190815260200160002060050160026101000a81548173ffffffffffffffffffffffffffffffffffffffff021916908373ffffffffffffffffffffffffffffffffffffffff1602179055508273ffffffffffffffffffffffffffffffffffffffff16846007600087815260200190815260200160002060020160009054906101000a900473ffffffffffffffffffffffffffffffffffffffff1673ffffffffffffffffffffffffffffffffffffffff167f62160e4abadfc3a6afc583d10586d737c813753fe64d93f4283282b2b600a34460405160405180910390a450505050565b80600061229c82610e57565b50505050915050600073ffffffffffffffffffffffffffffffffffffffff168173ffffffffffffffffffffffffffffffffffffffff161415612346576040517f08c379a000000000000000000000000000000000000000000000000000000000815260040180806020018281038252600e8152602001807f6572726f725f6e6f74466f756e6400000000000000000000000000000000000081525060200191505060405180910390fd5b3373ffffffffffffffffffffffffffffffffffffffff168173ffffffffffffffffffffffffffffffffffffffff1614806123cb57503373ffffffffffffffffffffffffffffffffffffffff1660008054906101000a900473ffffffffffffffffffffffffffffffffffffffff1673ffffffffffffffffffffffffffffffffffffffff16145b61243d576040517f08c379a00000000000000000000000000000000000000000000000000000000081526004018080602001828103825260178152602001807f6572726f725f70726f647563744f776e6572734f6e6c7900000000000000000081525060200191505060405180910390fd5b61244683612d75565b50600060076000858152602001908152602001600020905060018081111561246a57fe5b8160050160019054906101000a900460ff16600181111561248757fe5b146124fa576040517f08c379a00000000000000000000000000000000000000000000000000000000081526004018080602001828103825260118152602001807f6572726f725f6e6f744465706c6f79656400000000000000000000000000000081525060200191505060405180910390fd5b60008160050160016101000a81548160ff0219169083600181111561251b57fe5b0217905550838160020160009054906101000a900473ffffffffffffffffffffffffffffffffffffffff1673ffffffffffffffffffffffffffffffffffffffff167f6750bd07f3440c9b2da2a518e9f4a65d68b1e52ae97282a2265bc78f2804450c836001018460030160009054906101000a900473ffffffffffffffffffffffffffffffffffffffff1685600401548660050160009054906101000a900460ff1660405180806020018573ffffffffffffffffffffffffffffffffffffffff1681526020018481526020018360018111156125f357fe5b81526020018281038252868181546001816001161561010002031660029004815260200191508054600181600116156101000203166002900480156126795780601f1061264e57610100808354040283529160200191612679565b820191906000526020600020905b81548152906001019060200180831161265c57829003601f168201915b50509550505050505060405180910390a350505050565b6009600083815260200190815260200160002060009054906101000a900473ffffffffffffffffffffffffffffffffffffffff1673ffffffffffffffffffffffffffffffffffffffff163373ffffffffffffffffffffffffffffffffffffffff161415612765576040517f08c379a00000000000000000000000000000000000000000000000000000000081526004018080602001828103825260178152602001807f63616e6e6f742070757263686173652070726f6475637400000000000000000081525060200191505060405180910390fd5b6000806000806127758642612b17565b9350935093509350600061279e8661ffff1683870163ffffffff1661375790919063ffffffff16565b905060006127aa6137dd565b90507fbde0ada47b47bdd19484cb971acc723b6ded8c9d5fc97b5d15cb54731cd790d4816040518082815260200191505060405180910390a17f0cc515670684ff07d96fffc9c5e8adb00606894c3d898deedafc39a21ddb4b9a826040518082815260200191505060405180910390a1600061282f828461375790919063ffffffff16565b90507ff3cf7d2537b5f2e6a55a049dc2444cd1f3db7fc80f883206450a2ead71501aaa816040518082815260200191505060405180910390a1803410156128c1576040517f08c379a0000000000000000000000000000000000000000000000000000000008152600401808060200182810382526030815260200180613b5c6030913960400191505060405180910390fd5b600260009054906101000a900473ffffffffffffffffffffffffffffffffffffffff1673ffffffffffffffffffffffffffffffffffffffff166323b872dd3330846040518463ffffffff1660e01b8152600401808473ffffffffffffffffffffffffffffffffffffffff1681526020018373ffffffffffffffffffffffffffffffffffffffff1681526020018281526020019350505050602060405180830381600087803b15801561297257600080fd5b505af1158015612986573d6000803e3d6000fd5b505050506040513d602081101561299c57600080fd5b8101908080519060200190929190505050507fd36711665fc21bf1b85b0d418dbd344aadc6c179646ee976400fc6b209df60e13382604051808373ffffffffffffffffffffffffffffffffffffffff1681526020018281526020019250505060405180910390a1505050505050505050565b60008054906101000a900473ffffffffffffffffffffffffffffffffffffffff1673ffffffffffffffffffffffffffffffffffffffff163373ffffffffffffffffffffffffffffffffffffffff1614612acf576040517f08c379a00000000000000000000000000000000000000000000000000000000081526004018080602001828103825260098152602001807f6f6e6c794f776e6572000000000000000000000000000000000000000000000081525060200191505060405180910390fd5b60018060146101000a81548160ff0219169083151502179055507fb9a9933a77b9a7a29e40200fac197e473784255ce94392c1116c4d5fb64b414060405160405180910390a1565b60008060008060006008600088815260200190815260200160002090506000816001015490506000826002015490506000612b5b83612b56848c6139f4565b613a0d565b9050600083830390506000848303905060008660000160009054906101000a900463ffffffff16905060008760000160049054906101000a900463ffffffff169050600082820390506000612bd186612bc3878563ffffffff1661375790919063ffffffff16565b613a2790919063ffffffff16565b90506000818b60000160009054906101000a900463ffffffff16019050808b60000160009054906101000a900463ffffffff168c60000160049054906101000a900463ffffffff168d60000160089054906101000a900463ffffffff169e509e509e509e50505050505050505050505092959194509250565b600160009054906101000a900473ffffffffffffffffffffffffffffffffffffffff1681565b60008054906101000a900473ffffffffffffffffffffffffffffffffffffffff1673ffffffffffffffffffffffffffffffffffffffff163373ffffffffffffffffffffffffffffffffffffffff1614612d31576040517f08c379a00000000000000000000000000000000000000000000000000000000081526004018080602001828103825260098152602001807f6f6e6c794f776e6572000000000000000000000000000000000000000000000081525060200191505060405180910390fd5b80600160006101000a81548173ffffffffffffffffffffffffffffffffffffffff021916908373ffffffffffffffffffffffffffffffffffffffff16021790555050565b60008073ffffffffffffffffffffffffffffffffffffffff16600360009054906101000a900473ffffffffffffffffffffffffffffffffffffffff1673ffffffffffffffffffffffffffffffffffffffff161415612dd65760009050613275565b60006007600084815260200190815260200160002090506000801b816000015414612e05576000915050613275565b600080600080600080600360009054906101000a900473ffffffffffffffffffffffffffffffffffffffff1673ffffffffffffffffffffffffffffffffffffffff16633a20e9df8a6040518263ffffffff1660e01b81526004018082815260200191505060006040518083038186803b158015612e8157600080fd5b505afa158015612e95573d6000803e3d6000fd5b505050506040513d6000823e3d601f19601f8201168201806040525060c0811015612ebf57600080fd5b8101908080516040519392919084640100000000821115612edf57600080fd5b83820191506020820185811115612ef557600080fd5b8251866001820283011164010000000082111715612f1257600080fd5b8083526020830192505050908051906020019080838360005b83811015612f46578082015181840152602081019050612f2b565b50505050905090810190601f168015612f735780820380516001836020036101000a031916815260200191505b506040526020018051906020019092919080519060200190929190805190602001909291908051906020019092919080519060200190929190505050955095509550955095509550600073ffffffffffffffffffffffffffffffffffffffff168573ffffffffffffffffffffffffffffffffffffffff161415613000576000975050505050505050613275565b88876000018190555085876001019080519060200190613021929190613ab0565b50848760020160006101000a81548173ffffffffffffffffffffffffffffffffffffffff021916908373ffffffffffffffffffffffffffffffffffffffff160217905550838760030160006101000a81548173ffffffffffffffffffffffffffffffffffffffff021916908373ffffffffffffffffffffffffffffffffffffffff160217905550828760040181905550818760050160006101000a81548160ff021916908360018111156130d157fe5b0217905550808760050160016101000a81548160ff021916908360018111156130f657fe5b021790555086600001548760020160009054906101000a900473ffffffffffffffffffffffffffffffffffffffff1673ffffffffffffffffffffffffffffffffffffffff167f66d4bd024adf8c773ccf8e00cd03440c208ba4e222aee761f335d37894cf0688896001018a60030160009054906101000a900473ffffffffffffffffffffffffffffffffffffffff168b600401548c60050160009054906101000a900460ff1660405180806020018573ffffffffffffffffffffffffffffffffffffffff1681526020018481526020018360018111156131d257fe5b81526020018281038252868181546001816001161561010002031660029004815260200191508054600181600116156101000203166002900480156132585780601f1061322d57610100808354040283529160200191613258565b820191906000526020600020905b81548152906001019060200180831161323b57829003601f168201915b50509550505050505060405180910390a360019750505050505050505b919050565b6000801b8514156132f3576040517f08c379a00000000000000000000000000000000000000000000000000000000081526004018080602001828103825260138152602001807f6572726f725f6e756c6c50726f6475637449640000000000000000000000000081525060200191505060405180910390fd5b60008211613369576040517f08c379a000000000000000000000000000000000000000000000000000000000815260040180806020018281038252601e8152602001807f6572726f725f6672656550726f64756374734e6f74537570706f72746564000081525060200191505060405180910390fd5b600061337486610e57565b50505050915050600073ffffffffffffffffffffffffffffffffffffffff168173ffffffffffffffffffffffffffffffffffffffff161461341d576040517f08c379a00000000000000000000000000000000000000000000000000000000081526004018080602001828103825260138152602001807f6572726f725f616c72656164794578697374730000000000000000000000000081525060200191505060405180910390fd5b6040518061010001604052808781526020018681526020013373ffffffffffffffffffffffffffffffffffffffff1681526020018573ffffffffffffffffffffffffffffffffffffffff16815260200184815260200183600181111561347f57fe5b815260200160018081111561349057fe5b8152602001600073ffffffffffffffffffffffffffffffffffffffff16815250600760008881526020019081526020016000206000820151816000015560208201518160010190805190602001906134e9929190613ab0565b5060408201518160020160006101000a81548173ffffffffffffffffffffffffffffffffffffffff021916908373ffffffffffffffffffffffffffffffffffffffff16021790555060608201518160030160006101000a81548173ffffffffffffffffffffffffffffffffffffffff021916908373ffffffffffffffffffffffffffffffffffffffff1602179055506080820151816004015560a08201518160050160006101000a81548160ff021916908360018111156135a657fe5b021790555060c08201518160050160016101000a81548160ff021916908360018111156135cf57fe5b021790555060e08201518160050160026101000a81548173ffffffffffffffffffffffffffffffffffffffff021916908373ffffffffffffffffffffffffffffffffffffffff160217905550905050853373ffffffffffffffffffffffffffffffffffffffff167ffc40aabcb4d23610d7289ef46ddef531e5d8d441c02900952b0ef6d297e553a58787878760405180806020018573ffffffffffffffffffffffffffffffffffffffff16815260200184815260200183600181111561369157fe5b8152602001828103825286818151815260200191508051906020019080838360005b838110156136ce5780820151818401526020810190506136b3565b50505050905090810190601f1680156136fb5780820380516001836020036101000a031916815260200191505b509550505050505060405180910390a3505050505050565b80600260006101000a81548173ffffffffffffffffffffffffffffffffffffffff021916908373ffffffffffffffffffffffffffffffffffffffff16021790555050565b60008083141561376a57600090506137d7565b600082840290508284828161377b57fe5b04146137d2576040517f08c379a0000000000000000000000000000000000000000000000000000000008152600401808060200182810382526021815260200180613b8c6021913960400191505060405180910390fd5b809150505b92915050565b600080600460009054906101000a900473ffffffffffffffffffffffffffffffffffffffff1673ffffffffffffffffffffffffffffffffffffffff1663feaf968c6040518163ffffffff1660e01b815260040160a06040518083038186803b15801561384857600080fd5b505afa15801561385c573d6000803e3d6000fd5b505050506040513d60a081101561387257600080fd5b8101908080519060200190929190805190602001909291908051906020019092919080519060200190929190805190602001909291905050505050509150506000600460009054906101000a900473ffffffffffffffffffffffffffffffffffffffff1673ffffffffffffffffffffffffffffffffffffffff1663313ce5676040518163ffffffff1660e01b815260040160206040518083038186803b15801561391b57600080fd5b505afa15801561392f573d6000803e3d6000fd5b505050506040513d602081101561394557600080fd5b81019080805190602001909291905050509050600082136139b1576040517f08c379a0000000000000000000000000000000000000000000000000000000008152600401808060200182810382526022815260200180613bad6022913960400191505060405180910390fd5b60006139e9836139db670de0b6b3a76400006002860360ff16600a0a61375790919063ffffffff16565b613a2790919063ffffffff16565b905080935050505090565b6000818310613a035781613a05565b825b905092915050565b600081831015613a1d5781613a1f565b825b905092915050565b6000808211613a9e576040517f08c379a000000000000000000000000000000000000000000000000000000000815260040180806020018281038252601a8152602001807f536166654d6174683a206469766973696f6e206279207a65726f00000000000081525060200191505060405180910390fd5b818381613aa757fe5b04905092915050565b828054600181600116156101000203166002900490600052602060002090601f016020900481019282613ae65760008555613b2d565b82601f10613aff57805160ff1916838001178555613b2d565b82800160010185558215613b2d579182015b82811115613b2c578251825591602001919060010190613b11565b5b509050613b3a9190613b3e565b5090565b5b80821115613b57576000816000905550600101613b3f565b509056fe5061796d656e7420646f6573206e6f7420636f76657220746865207072696365206f66207468652070726f647563742e536166654d6174683a206d756c7469706c69636174696f6e206f766572666c6f7743616e6e6f7420627579207768656e20726174652069732030206f72206c6573732ea26469706673582212204b801b081e5aef241df49cbeb2a76b7cffe86616766387a77ecbbfd27c6e7ecd64736f6c63430007060033",
  "immutableReferences": {},
  "source": "//SPDX-License-Identifier: MIT\r\npragma solidity >=0.6.0 <0.8.0;\r\n\r\nimport \"@chainlink/contracts/src/v0.4/interfaces/AggregatorV3Interface.sol\";\r\nimport \"@openzeppelin/contracts/math/SafeMath.sol\";\r\nimport \"@openzeppelin/contracts/math/Math.sol\";\r\nimport \"@openzeppelin/contracts/token/ERC20/IERC20.sol\";\r\n\r\nimport \"./Ownable.sol\";\r\n\r\ninterface IMarketplace1 {\r\n\r\n     enum ProductState {\r\n        NotDeployed,                // don't exist or removed\r\n        Deployed                    // created or redeployed\r\n    }\r\n\r\n    enum Currency {\r\n        DMT,                       // \"token wei\" (10^-18 GMT)\r\n        USD                         // dollars (10^-18 USD)\r\n    }\r\n\r\n    function getProduct(bytes32 id) external view returns (string memory name, address owner, address beneficiary, uint pricePerSecond, Currency currency, ProductState state);\r\n}\r\n\r\ncontract Marketplace is Ownable, IMarketplace1 {\r\n    using SafeMath for uint256;\r\n    bool public hold = false;\r\n    IERC20 public digimart;\r\n    IMarketplace1 marketplace;\r\n    AggregatorV3Interface internal priceFeed;\r\n    address public currencyUpdateAgent;\r\n    address payable public _beneficiary;\r\n    //uint public dmtPerUsd = 100000000000000000; //Exchange rates is formatted as 10^18, like ether = 0.1 DMT/USD.\r\n\r\n    uint8 constant INTERNAL_PRICE_DECIMALS = 2;\r\n\r\n    mapping (bytes32 => Product) public products;\r\n    mapping(uint256 => StoreData) storeData;\r\n    mapping(uint256 => address) productBalance;\r\n\r\n    /// events\r\n    event Holded();\r\n    event Resumed();\r\n\r\n    // product events\r\n    event ProductCreated(address indexed owner, bytes32 indexed id, string name, address beneficiary, uint pricePerSecond, Currency currency);\r\n    event ProductUpdated(address indexed owner, bytes32 indexed id, string name, address beneficiary, uint pricePerSecond, Currency currency);\r\n    event ProductDeleted(address indexed owner, bytes32 indexed id, string name, address beneficiary, uint pricePerSecond, Currency currency);\r\n    event ProductImported(address indexed owner, bytes32 indexed id, string name, address beneficiary, uint pricePerSecond, Currency currency);\r\n    event ProductRedeployed(address indexed owner, bytes32 indexed id, string name, address beneficiary, uint pricePerSecond, Currency currency);\r\n    event ProductOwnershipOffered(address indexed owner, bytes32 indexed id, address indexed to);\r\n    event ProductOwnershipChanged(address indexed newOwner, bytes32 indexed id, address indexed oldOwner);\r\n    event PurchaseSuccessful(address customer, uint amount);\r\n    event Withdraw(uint256 amount);\r\n\r\n    event PaymentRequiredUSD(uint256 paymentusd);\r\n    event UsdToDmt(uint256 usd_wei);\r\n    event Dmt(uint256 dmt_cost);\r\n\r\n\r\n\r\n    // modifiers\r\n    modifier onHold() {\r\n        require(!hold || owner == msg.sender, \"error_hold\");\r\n        _;\r\n    }\r\n\r\n    modifier onlyProductOwner(bytes32 productId) {\r\n        (,address _owner,,,,) = getProduct(productId);\r\n        require(_owner != address(0), \"error_notFound\");\r\n        require(_owner == msg.sender || owner == msg.sender, \"error_productOwnersOnly\");\r\n        _;\r\n    }\r\n\r\n    // Product registry\r\n    struct Product {\r\n        bytes32 id;\r\n        string name;\r\n        address owner;\r\n        address beneficiary;  // account where revenue is directed to\r\n        uint pricePerSecond;\r\n        Currency priceCurrency;\r\n        ProductState state;\r\n        address newOwnerCandidate;\r\n    }\r\n\r\n     // stores data for a single product release\r\n    struct StoreData {\r\n        uint32 startPriceUsd;\r\n        uint32 endPriceUsd;\r\n        uint32 feesPerproductUsd;\r\n        uint16 totalProductSupply;\r\n        uint16 buybackPercent;\r\n        uint256 startTimestamp;\r\n        uint256 endTimestamp;\r\n    }\r\n\r\n\r\n    constructor(address digiMartTokenAddress) Ownable() public {\r\n        _initialize(digiMartTokenAddress);\r\n    }\r\n\r\n\r\n    function reInitialize(address digiMartTokenAddress) public onlyOwner {\r\n        _initialize(digiMartTokenAddress);\r\n    }\r\n\r\n\r\n    function _initialize(address digiMartTokenAddress) internal {\r\n        digimart = IERC20(digiMartTokenAddress);\r\n    }\r\n\r\n    /**\r\n     * get product details \r\n     */\r\n    function getProduct(bytes32 id) public override view returns (string memory name, address owner, address beneficiary, uint pricePerSecond, Currency currency, ProductState state) {\r\n        if (owner != address(0) || address(marketplace) == address(0))\r\n            return (name, owner, beneficiary, pricePerSecond, currency, state);\r\n        (name, owner, beneficiary, pricePerSecond, currency, state) = marketplace.getProduct(id);\r\n        return (name, owner, beneficiary, pricePerSecond, currency, state);\r\n    }\r\n\r\n    function _getProductDetails(bytes32 productId) internal returns (bool imported){\r\n        if(address(marketplace) == address(0)) { return false; }\r\n        Product storage p = products[productId];\r\n        if (p.id != 0x0) { return false; }\r\n        (string memory _name, address _owner, address _beneficial, uint _pricePerSecond, IMarketplace1.Currency _priceCurrency, IMarketplace1.ProductState _state) = marketplace.getProduct(productId);\r\n        if (_owner == address(0)) { return false; }\r\n        p.id = productId;\r\n        p.name = _name;\r\n        p.owner = _owner;\r\n        p.beneficiary = _beneficial;\r\n        p.pricePerSecond = _pricePerSecond;\r\n        p.priceCurrency = _priceCurrency;\r\n        p.state = _state;\r\n        emit ProductImported(p.owner, p.id, p.name, p.beneficiary, p.pricePerSecond, p.priceCurrency);\r\n        return true;\r\n    }\r\n\r\n\r\n    /**\r\n     * createProductProfile for listing\r\n     */\r\n    function createProductProfile(bytes32 id, string memory name, address beneficiary, uint pricePerSecond, Currency currency) public onHold {\r\n        _createProductProfile(id, name, beneficiary, pricePerSecond, currency);\r\n    }\r\n\r\n\r\n    function _createProductProfile(bytes32 id, string memory name, address beneficiary, uint pricePerSecond, Currency currency) internal {\r\n        require(id != 0x0, \"error_nullProductId\");\r\n        require(pricePerSecond > 0, \"error_freeProductsNotSupported\");\r\n        (,address _owner,,,,) = getProduct(id);\r\n        require(_owner == address(0), \"error_alreadyExists\");\r\n        products[id] = Product({\r\n            id: id, \r\n            name: name, \r\n            owner: msg.sender, \r\n            beneficiary: beneficiary, \r\n            pricePerSecond: pricePerSecond,\r\n            priceCurrency: currency,  \r\n            state: ProductState.Deployed, \r\n            newOwnerCandidate: address(0)\r\n            });\r\n        emit ProductCreated(msg.sender, id, name, beneficiary, pricePerSecond, currency);\r\n    }\r\n\r\n    /**\r\n    * Stop offering the product\r\n    */\r\n    function removeProduct(bytes32 productId) public onlyProductOwner(productId) {\r\n        _getProductDetails(productId);\r\n        Product storage p = products[productId];\r\n        require(p.state == ProductState.Deployed, \"error_notDeployed\");\r\n        p.state = ProductState.NotDeployed;\r\n        emit ProductDeleted(p.owner, productId, p.name, p.beneficiary, p.pricePerSecond, p.priceCurrency);\r\n    }\r\n\r\n    /**\r\n    * Return product to market\r\n    */\r\n    function redeployProduct(bytes32 productId) public onlyProductOwner(productId) {\r\n        _getProductDetails(productId);\r\n        Product storage p = products[productId];\r\n        require(p.state == ProductState.NotDeployed, \"error_mustBeNotDeployed\");\r\n        p.state = ProductState.Deployed;\r\n        emit ProductRedeployed(p.owner, productId, p.name, p.beneficiary, p.pricePerSecond, p.priceCurrency);\r\n    }\r\n\r\n    /**\r\n    * update product status \r\n    */\r\n    function updateProduct(bytes32 productId, string memory name, address beneficiary, uint pricePerSecond, Currency currency, bool redeploy) public onlyProductOwner(productId) {\r\n        require(pricePerSecond > 0, \"error_freeProductsNotSupported\");\r\n        _getProductDetails(productId);\r\n        Product storage p = products[productId];\r\n        p.name = name;\r\n        p.beneficiary = beneficiary;\r\n        p.pricePerSecond = pricePerSecond;\r\n        p.priceCurrency = currency;\r\n        emit ProductUpdated(p.owner, p.id, name, beneficiary, pricePerSecond, currency);\r\n        if (redeploy) {\r\n            redeployProduct(productId);\r\n        }\r\n    }\r\n\r\n    function currentProductPrice(uint256 tokenId) public view returns(uint32, uint32, uint32, uint32) {\r\n        return productPriceData(tokenId, block.timestamp);\r\n    }\r\n\r\n    /**\r\n    *   get product data\r\n    */\r\n    function productPriceData(uint256 tokenId, uint256 targetDate) public view returns (uint32, uint32, uint32, uint32) {\r\n        StoreData storage store = storeData[tokenId];\r\n    \r\n        uint256 startTimestamp = store.startTimestamp;\r\n        uint256 endTimestamp = store.endTimestamp;\r\n        uint256 clampedDate = Math.max(startTimestamp, Math.min(endTimestamp, targetDate));\r\n        uint256 totalAgingDuration = endTimestamp - startTimestamp;\r\n        uint256 elapsedDuration = clampedDate - startTimestamp;\r\n\r\n        uint32 startPrice = store.startPriceUsd;\r\n        uint32 endPrice = store.endPriceUsd;\r\n        uint32 priceRange = endPrice - startPrice;\r\n        uint32 additionalPrice = uint32(uint256(priceRange).mul(elapsedDuration).div(totalAgingDuration));\r\n        uint32 currBottlePrice = store.startPriceUsd + additionalPrice;\r\n\r\n        return (currBottlePrice, store.startPriceUsd, store.endPriceUsd, store.feesPerproductUsd);\r\n    }\r\n\r\n\r\n    /**\r\n    * Changes ownership of the product. \r\n    */\r\n    function offerProductOwnership(bytes32 productId, address newOwnerCandidate) public onlyProductOwner(productId) {\r\n        _getProductDetails(productId);\r\n        products[productId].newOwnerCandidate = newOwnerCandidate;\r\n        emit ProductOwnershipOffered(products[productId].owner, productId, newOwnerCandidate);\r\n    }\r\n\r\n    /**\r\n    * Changes ownership of the product. \r\n    */\r\n    function claimProductOwnership(bytes32 productId) public onHold {\r\n        _getProductDetails(productId);\r\n        Product storage p = products[productId];\r\n        require(msg.sender == p.newOwnerCandidate, \"error_notPermitted\");\r\n        emit ProductOwnershipChanged(msg.sender, productId, p.owner);\r\n        p.owner = msg.sender;\r\n        p.newOwnerCandidate = address(0);\r\n    }\r\n\r\n    function hodle() public onlyOwner {\r\n        hold = true;\r\n        emit Holded();\r\n    }\r\n\r\n    function resume() public onlyOwner {\r\n        hold = false;\r\n        emit Resumed();\r\n    }\r\n\r\n    function purchase(uint amount, uint16 quantity) public payable {\r\n        require(msg.sender != productBalance[amount], \"cannot purchase product\");\r\n        \r\n        (uint32 tokenPriceUsd, uint32 startPrice, uint32 endPrice, uint32 feePriceUsd) = productPriceData(amount, block.timestamp);\r\n        uint256 paymentRequiredUSD = uint256(tokenPriceUsd + feePriceUsd).mul(quantity);\r\n        uint256 usdToDmt = usdToDmtExchangeRate();\r\n        emit UsdToDmt(usdToDmt);\r\n        emit PaymentRequiredUSD(paymentRequiredUSD);\r\n\r\n        uint256 dmtRequired = paymentRequiredUSD.mul(usdToDmt);\r\n        emit Dmt(dmtRequired);\r\n        require(msg.value >= dmtRequired, \"Payment does not cover the price of the product.\");\r\n        digimart.transferFrom(msg.sender, address(this), dmtRequired);\r\n        emit PurchaseSuccessful(msg.sender, dmtRequired);\r\n    }\r\n\r\n    function usdToDmtExchangeRate() internal view returns (uint256) {\r\n       \r\n        (, int256 usdToEthRate, , , ) = priceFeed.latestRoundData();\r\n        uint8 rateDecimals = priceFeed.decimals();\r\n        require(usdToEthRate > 0, \"Cannot buy when rate is 0 or less.\");\r\n        uint256 usdToDmt = uint256(10 ** (rateDecimals - INTERNAL_PRICE_DECIMALS)).mul(1 ether).div(uint256(usdToEthRate));\r\n        return usdToDmt;\r\n    }\r\n\r\n    function withdraw() public onlyOwner {\r\n         uint balance = address(this).balance;\r\n         _beneficiary.transfer(balance);\r\n         emit Withdraw(balance);\r\n  }\r\n}",
  "sourcePath": "C:\\Users\\AI\\Smart contracts\\Digimart\\contracts\\DigitalMarketPlace.sol",
  "compiler": {
    "name": "solc",
    "version": "0.7.6+commit.7338295f.Emscripten.clang"
  },
  "schemaVersion": "3.4.6",
  "updatedAt": "2022-04-25T22:40:49.690Z",
  "devdoc": {
    "kind": "dev",
    "methods": {
      "claimOwnership()": {
        "details": "Allows the pendingOwner address to finalize the transfer."
      },
      "transferOwnership(address)": {
        "details": "Allows the current owner to set the pendingOwner address.",
        "params": {
          "newOwner": "The address to transfer ownership to."
        }
      }
    },
    "version": 1
  },
  "userdoc": {
    "events": {
      "Holded()": {
        "notice": "events"
      }
    },
    "kind": "user",
    "methods": {
      "claimProductOwnership(bytes32)": {
        "notice": "Changes ownership of the product. "
      },
      "createProductProfile(bytes32,string,address,uint256,uint8)": {
        "notice": "createProductProfile for listing"
      },
      "getProduct(bytes32)": {
        "notice": "get product details "
      },
      "offerProductOwnership(bytes32,address)": {
        "notice": "Changes ownership of the product. "
      },
      "productPriceData(uint256,uint256)": {
        "notice": "get product data"
      },
      "redeployProduct(bytes32)": {
        "notice": "Return product to market"
      },
      "removeProduct(bytes32)": {
        "notice": "Stop offering the product"
      },
      "updateProduct(bytes32,string,address,uint256,uint8,bool)": {
        "notice": "update product status "
      }
    },
    "version": 1
  }
}